:0A000000FCC8A5C9FBC9FCCFFBCF6B
:10000A00FACFF9CFF8CF07CAF6CFF5CFF4CFF3CFAF
:10001A00F2CFF1CFF0CFEFCFEECFEDCF000101015C
:10002A0081C161212121614101E1E1212121E1E136
:10003A0001010181E161E181010101E1E121212166
:10004A00E1C101010181E161E181010101010101D6
:10005A0061E181010181E16101E1E10181C1612186
:10006A0001E1E1212121E1C101010181E161E18196
:10007A00010109E1E10901E1E1010101E1E1010116
:10008A00E1E10101010101010101FFFF010101FD9E
:10009A00F931E10101FDFD0101E131F9FD01010142
:1000AA00FFFF010101010101010101E1E12121211A
:1000BA002101E1E1212121210101E1E1212121E1C6
:1000CA00C1010181C161212161C1810101C1E12116
:1000DA002121E1E10101E1E1E1810181E1E1E101C6
:1000EA00010101010181C161212121614101E1E196
:1000FA00212121E1E101010181E161E181010101A6
:10010A00E1E1212121E1C101010181E161E18101F5
:10011A000101010101010100000000001F3F6040D0
:10012A0040406020407F3F0000007F7F00607C1FCE
:10013A001310131F7C60007F7F4242427F3D0060A4
:10014A007C1F1310131F7C60000000000041477ED3
:10015A003C0F0300007F7F020F3D7040007F7F0449
:10016A000404070300607C1F1310131F7C60007FC8
:10017A007F00007F7F0202027F7F00007F7F0000F6
:10018A00000000000000FFFF0000007F7F4C5FF0CE
:10019A00FC6767FCF05F4C7F7F000000FFFF0000F8
:1001AA00000000000000007F7F00000000007F7F49
:1001BA004242424200007F7F040404070300001FFA
:1001CA003F604040603F1F0040733F0C04047F7F44
:1001DA0000007F7F013F703F017F7F000000000029
:1001EA00001F3F604040406020407F3F0000007F8A
:1001FA007F00607C1F1310131F7C60007F7F4242C8
:10020A00427F3D00607C1F1310131F7C60000000BA
:10021A00000000000008080808080808080808087C
:10022A000808080808080808080808080808080844
:10023A000808080808080808080808080808080834
:10024A000808080808080808080808080808080824
:10025A000808080808080808080808080808080814
:10026A000808080808080808080808080808080804
:10027A0008080808080808080808080808080808F4
:10028A000808090B0E0C080808080808090B0B09CE
:10029A000808080808080C0E0B09080808080808C6
:1002AA0008080808080808080808080808080808C4
:1002BA0008080808080808080808080808080808B4
:1002CA0008080808080808080808080808080808A4
:1002DA000808080808080808080808080808080894
:1002EA000808080808080808080808080808080884
:1002FA000808080808080808080808080808080874
:10030A00080808080808080808080808080808006B
:10031A000001010101010101010101C1C16161E1A4
:10032A00E10101E1E1616161E1E1010101010181B3
:10033A00C1E101010101E1E16161C1C10101010103
:10034A000181C1E101010101010101010101E1E1B3
:10035A0001010101E1E1010101010181C1E10101A3
:10036A000101E1E101010101E1E1016161E1E16113
:10037A006101616DEDE16D6D0101E1E101010101D3
:10038A00010101010101C1C16161E1E10101E1E193
:10039A00010101E1E10101E1E161616161610101E3
:1003AA00E1E161E1C101616161E1E1616161010173
:1003BA00E1E1010101010101010101010101E1E1A3
:1003CA006161C1C1010181C1E1616161E1C1810173
:1003DA00E1E161E1C1010181C1E1616161E1C181E3
:1003EA0001E1E1616161616101010181C1E1010133
:1003FA00010101E1E1010101E1E1010101E1E101A3
:10040A0001010101010101010101010000000000D7
:10041A0000000000001E3F63606060303040407F93
:10042A003F0000007F7F000060781E0F0D0F7F6085
:10043A0000007F7F6666773D180060781E0F0D0FFB
:10044A007F6000000000000000007F7F06060606AD
:10045A007F7F000060781E0F0D0F7F6000007F7F96
:10046A00606060607FFFE060607F7F606000606066
:10047A007F7F606000006F6F000C0C0C0C0C00009A
:10048A001E3F636060603030707F0F0F7F781F03FC
:10049A007F7C003F7F666666666600007F7F060790
:1004AA0003000000007F7F00000000007F7F63637D
:1004BA007F3E00000000000000007F7F6666773DF7
:1004CA00181F3F7160606070381F0F007F7F06073A
:1004DA0003001F3F7160606070381F0F007F7F004C
:1004EA000000000060781E0F0D0F7F6000707F0F04
:1004FA000F7F781F037F7C00006F6F0000000000F1
:10050A0000000000000000000008080808080808A9
:10051A000808080808080808080808080808080851
:10052A000808080808080808080808080808080841
:10053A000808080808080808080808080808080831
:10054A000808080808080808080808080808080821
:10055A000808080808080808080808080808080811
:10056A0008090908080808080808080808080808FF
:10057A0008080808080808080808080808080808F1
:10058A0008080808080808080808080808080808E1
:10059A0008080808080808080808080808080808D1
:1005AA0008080808080808080808080808080808C1
:1005BA0008080808080808080808080808080808B1
:1005CA0008080808080808080808080808080808A1
:1005DA000808080808080808080808080808080891
:1005EA000808080808080808080808080808080881
:1005FA000808080808080808080808080808080871
:10060A000808080000FFFFFFFFFFFFFFFFFFFFFFD3
:10061A00FFFFFFFFFFFFFFFFFFFFFFFFFFFFFFFFE0
:10062A00FFFFFFFFFFFFFFFFFFFFFFFFFF010101CA
:10063A0001010161E181010181E16101E1E101E180
:10064A00E1210101E1E161E1C1010101010181C190
:10065A00E1010101616DEDE16D6D0101E1E1010170
:10066A000101E1E1010101010181C1E10101010190
:10067A0001010101016161E1E161616161E1E16140
:10068A00610181C1E1616161E1C18101E1E10101D0
:10069A000101E1E1010101010181C1E10101010160
:1006AA0001E1E1616161E1E1010101010101016130
:1006BA00E181010181E1610101C1C16161E1E1E120
:1006CA00E161616161610101E1E101010101010190
:1006DA0001010101010101FFFFFFFFFFFFFFFFFF12
:1006EA00FFFFFFFFFFFFFFFFFFFFFFFFFFFFFFFF10
:1006FA00FFFFFFFFFFFFFFFFFFFFFFFFFFFFFF00FF
:10070A0000FFFFFFFFFFFFFFFFFFFFFFFFFFFFFFEE
:10071A00FFFFFFFFFFFFFFFFFFFFFFFFFFFFFFFFDF
:10072A00FFFFFFFFFFFFFFFFFF00000000000000C8
:10073A0040436F3C0F0300007F7F030F7D70000072
:10074A007F7F060703000060781E0F0D0F7F600091
:10075A0060607F7F606000007F7F060606067F7FFD
:10076A00000060781E0F0D0F7F600000000000007F
:10077A000000007F7F000000007F7F00001F3F71A4
:10078A0060606070381F0F007F7F060606067F7F55
:10079A00000060781E0F0D0F7F6000E0F07F676039
:1007AA0060607FFFE00000000000000040436F3CF3
:1007BA000F03001E3F6360606030303F7F666666ED
:1007CA00666600006F6F0000000000000000000075
:1007DA00000000FFFFFFFFFFFFFFFFFFFFFFFFFF1C
:1007EA00FFFFFFFFFFFFFFFFFFFFFFFFFFFFFFFF0F
:1007FA00FFFFFFFFFFFFFFFFFFFFFF00000F0F0FCD
:10080A000F0F0F0F0F0F0F0F0F0F0F0F0F0F0F0FEE
:10081A000F0F0F0F0F0F0F0F0F0F0F0F0F0F0F0FDE
:10082A000F0F0F0F0F08080808080808080808081B
:10083A00080808080808080808080808080808082E
:10084A00080808080808080808080808080808081E
:10085A00080808080808080808080808080808080E
:10086A0008080808080808080808080808080808FE
:10087A0008080808080808080808080808080808EE
:10088A0008080808080808080808080808080808DE
:10089A0008080808080808080808080808080808CE
:1008AA0008080808080808080808080808080808BE
:1008BA0008080808080808080808080808080808AE
:1008CA000808080808080808080808080808080F97
:1008DA000F0F0F0F0F0F0F0F0F0F0F0F0F0F0F0F1E
:1008EA000F0F0F0F0F0F0F0F0F0F0F0F0F0F0F0F0E
:1008FA000F0F0F0F0F0F0F00000000000000000085
:10090A0000000000C0F0F8FCFCFEFEFEFEFEFEFE4B
:10091A00FCFCF8F0C000000000000000000000002D
:10092A000000000000000000000000000060E0C0BD
:10093A00800080C0E06060E080000080E06060606D
:10094A0060E0E0606060006060E0E060600000E03D
:10095A00E000000000E0E0000000000000000000ED
:10096A000000000000000000000000006060E0E0FD
:10097A0060606060E0E0606060E080000080E060ED
:10098A0000E0E408080888E4E0000000E0E06060B5
:10099A0060E0E0000080C0E0606060E0C0800000CD
:1009AA000000000000E0E000000000000000E0E0BD
:1009BA0000000000000000E0E0000000000000006D
:1009CA0000000000000000000000000080E0701835
:1009DA008CC4C6C2820282C2C6C4CC9870E08000AF
:1009EA0000000000000000000000000000000000FD
:1009FA0000000000000000000000000000000000ED
:100A0A00071F3961C1C387FFFFBF87C3C1713D0F8C
:100A1A0003000000000000000000000000000000C9
:100A2A000000000000000000006070391F0F0F393D
:100A3A0070600040436F3C0F03000000007F7F009E
:100A4A0000000060607F7F606000007F7F0606060E
:100A5A00067F7F00000000000000000C0C0C0C0C4C
:100A6A00000000000000000000007F7F000000007E
:100A7A007F7F00000040436F3C0F0300007F3F1C54
:100A8A000E03017F7F0040407F3F0000007F7F0010
:100A9A001F3F7160606070381F0F00000000000087
:100AAA00006F6F000000000000006F6F0000000080
:100ABA000000006F6F00000000000000000000004E
:100ACA0000000000000000001F7FE0804347C58748
:100ADA0083808387C7474783E07F1F0000000000A9
:100AEA0000000000000000000000000000000000FC
:100AFA0000000000000000000000000000000000EC
:100B0A0001030307070703010000000000000000BB
:100B1A0000000000000000000000000000000000CB
:100B2A0000000000000000000000000000000000BB
:100B3A0000000000000000000000000000000000AB
:100B4A00000000000000000000000000000000009B
:100B5A00000000000000000000000000000000008B
:100B6A00000000000000000000000000000000007B
:100B7A00000000000000000000000000000000006B
:100B8A00000000000000000000000000000000005B
:100B9A00000000000000000000000000000000004B
:100BAA00000000000000000000000000000000003B
:100BBA00000000000000000000000000000000002B
:100BCA0000000000000000010302060404040404FB
:100BDA0006020301000000000000000000000000FF
:100BEA0000000000000000000000000000000000FB
:100BFA00000000000000000000000000E0F0F0F03B
:100C0A00F0F0E0F0F0F0F0F0E0000000000000008A
:100C1A00000000000000000000000000000000E0EA
:100C2A00E000C0E0602000C0E0E06060E0E0C000FA
:100C3A002060E0C080C0E060200000C0E0E0E0C0CA
:100C4A00000000E0E000C0E0E02060E0E0C000005A
:100C5A000000000080C0E0602060604000E0E0200A
:100C6A002060E0E00000C0E0E06060E0E0C000007A
:100C7A00E0E000C0E0E02060E0E0C000000000002A
:100C8A0000E0E0202020200020E0E0C00000C0E0DA
:100C9A00E020E0E0202020200020E0E0C00000C0AA
:100CAA00E0E020E0E000C0E06020E0E0C00000C03A
:100CBA00E0E020000000000000000000000000004A
:100CCA00000000000000E0F0F0F0F0F0E0F0F0F0DA
:100CDA00F0F0E0000000000000000000000000004A
:100CEA0000000000000000000000000000000000FA
:100CFA0000000000000000000103071FFFFF7F3F04
:100D0A003F1F0F0701000000000000000000000064
:100D1A0000000000000000000000007F7F071F7F26
:100D2A007860003F7F706060707F3F004060793F6D
:100D3A001F3F796040707E7F1F11177F7E70007F92
:100D4A007F023F7F706040707F3F0000000000001C
:100D5A001F3F706040606020007F7F4242677F3F94
:100D6A0000003F7F706060707F3F00007F7F023F1E
:100D7A007F706040707F3F0000000000007F7F426C
:100D8A0042667E3C0000436F7F3E1F0700007F7F64
:100D9A004242667E3C0000436F7F3E1F0700007F91
:100DAA007F071F7F786000436F7F3E1F07000000A8
:100DBA000000000000000000000000000000000029
:100DCA0000000103071FFFFF7F3F3F1F0F070100BE
:100DDA000000000000000000000000000000000009
:100DEA0000000000000000000000000000000000F9
:100DFA0000000000000000000000000000000000E9
:100E0A0000000000000000000000000000000000D8
:100E1A0000000000000000000000000000000000C8
:100E2A0000000000000000000000000000000000B8
:100E3A0000000000000000000000000000000000A8
:100E4A000000000000000000000000000000000098
:100E5A000000000000000000000000000000000088
:100E6A000000000000000000000000000000000078
:100E7A000000000000000000000000000000000068
:100E8A000000000000000000000000000000000058
:100E9A000000000000000000000000000000000048
:100EAA000000000000000000000000000000000038
:100EBA000000000000000000000000000000000028
:100ECA000000000000000000000000000000000018
:100EDA000000000000000000000000000000000008
:100EEA0000000000000000000000000000000000F8
:100EFA00000000000000000080C020109888080848
:100F0A0088981020C0800000000000000000000047
:100F1A000000000000000878E0C0000000000000A7
:100F2A000000000000000000008040A0908808082F
:100F3A000808181020C0800000000000000000C04F
:100F4A002020304808880848302020C000000000CF
:100F5A0000000000000080C0402030E0C040203087
:100F6A0060C040202070C00000000000000000C0E7
:100F7A003010181828CC0C0C0C0C0C0C8C989810EF
:100F8A0010000000000000000080F88C1C60800047
:100F9A000000000000000000000000F000F000E087
:100FAA00E000F000F0000000000000000000000077
:100FBA000000000000000000000000000000000027
:100FCA000000000000000000000000000000000017
:100FDA000000000000000000000000000000000007
:100FEA0000000000000000000000000000000000F7
:100FFA00000000001F30408C9121202021918C405C
:10100A00301F000000000000000000000009060276
:10101A00060606E67F3F0F060606000000000000EF
:10102A0000000000001F3F7FF9F9FFFEF0E0E6E64E
:10103A0060301F00000000000000031D28244087C4
:10104A00857A8780C424243C030000000000000045
:10105A00000040203010183060201018386020102E
:10106A00183860000000000000000021226464C4F7
:10107A00C2C1C0C0C0C0CE51606020310E000000A5
:10108A00000000000F3474745C702011110E00000F
:10109A000000000000007C057F031F3F3F1F037F05
:1010AA00057C0000000000000000000000000000B5
:1010BA000000000000000000000000000000000026
:1010CA000000000000000000000000000000000016
:1010DA000000000000000000000000000000000006
:1010EA0000000000000000000000000000000000F6
:1010FA0000000000010101010101000000000000E0
:10110A0000000000000000000000000000000101D3
:10111A0000000000000000000000000000000000C5
:10112A0000000000000101010101010000000000AF
:10113A0000000000000000000000000000000000A5
:10114A000000000000000000000000000000000095
:10115A000000000000000000000000000000000085
:10116A000000000000000000000000000000000075
:10117A000000000000000000000000000000000065
:10118A000000000000000000000000000000000055
:10119A000000000000000000000000000000000045
:1011AA000000000000000000000000000000000035
:1011BA000000000000000000000000000000000025
:1011CA000000000000000000000000000000000015
:1011DA0000000000000100006901FA000400040098
:1011EA00DE1102006801E21101006C01E411000045
:1011FA00F894EE27ECBBF1E0FBBFEBBFE5BFF8E1EB
:10120A00F1BDE1BD8DE0A2E0BB27ED938A95E9F738
:10121A0080E094E0A0E6ED930197E9F7E6EEF1E1CC
:10122A0085919591009761F0A591B59105901590DA
:10123A00BF01F00105900D920197E1F7FB01F0CF94
:10124A00EFE5EDBFE4E0EEBFC0E6D1E029C1AA9325
:10125A00EA81E17011F0AD9801C0AD9AEA81E270BD
:10126A0011F0AC9801C0AC9AEA81E47011F0AB9825
:10127A0001C0AB9AEA81E87011F0AA9801C0AA9A53
:10128A00EA81E07111F0A99801C0A99AEA81E07295
:10129A0011F0A89801C0A89AEA81E07411F0C298E6
:1012AA0001C0C29AEA81E07811F0C19801C0C19ADE
:1012BA00E981E17011F0C39801C0C39AE981E27033
:1012CA0011F0C49801C0C49AE981E47011F0C5987C
:1012DA0001C0C59AE981E87011F0C09801C0C09AAE
:1012EA00E981E07111F0979801C0979AE981E0725B
:1012FA0011F0969801C0969AE981E07411F09598D8
:10130A0001C0959AE981E07811F0C79801C0C79A9F
:10131A00E881E17011F0C69801C0C69AE881E270CE
:10132A0011F0949801C0949AE881E47011F09198B0
:10133A0001C0919AE881E87011F0909801C0909AE2
:10134A002396089573D165D1E0E0E5BF7DD1E0939E
:10135A006201F09363017FD182D14424A09162019A
:10136A00B0916301A93EE3E0BE070CF441C07CD111
:10137A00EC19FD09E0936001F0936101C0906201EC
:10138A00D0906301F30132963F0173D1E615F70558
:10139A0044F4662477245394E7E0E51511F4E1E078
:1013AA005E2ED301EEE1F0E0C8D15F01AEE1B0E01C
:1013BA00ACD15F01A0916001B091610155D1EA1BE6
:1013CA00FB0BDF0156D1B9D1E0936401F0936501BB
:1013DA0055D14CF4A0926601B0926701E0E0E09327
:1013EA006801E0936901E0E0E0936A01E0936B0130
:1013FA0049C01CD15394E7E0E51511F4E1E05E2EF3
:10140A0043D145D14AD149D14BD13ED140D145D121
:10141A0044D146D137C00AD1AAE6B1E043D12ED190
:10142A0019F446D13AD13CD146D1129719F440D198
:10143A003FD136D140D1139719F43AD139D140D19D
:10144A00ACE2B1E04CD137D11497E4F031D130D1CC
:10145A0037D138D122D121D123D134D129D128D1A0
:10146A002FD130D11AD119D11BD12CD121D120D1D0
:10147A0027D128D112D111D113D124D1F0D0C5D07E
:10148A00CCD08895E991EFBFF991E991B991A991E9
:10149A009991899179916991F99019900990189582
:1014AA00E0E0E8BBEFEFE7BBE0E0E5BBEFE7E4BB7A
:1014BA00E0E0E2BBE3EFE1BBE0E0E3BFE2BFEFBDA8
:1014CA00E4E0EEBDC8D0E0E0E7BDE6BDEBBDEABDB5
:1014DA00E9BDE8BDE2BDE5BDE4BDE3BDEBB7E06C47
:1014EA00EBBFE0E0E5BFE0ECEABFE4E0E9BFE0E043
:1014FA00EAB9E0E8E8B9E0E0E0BFE6B9EDB9E6BF8D
:10150A007894B7D0A0916801B0916901AE17BF076E
:10151A001CF4E1E0E41509F071C096D04F01E091A6
:10152A006801F0916901A0916401B0916501EDD063
:10153A00E815F9050CF061C0A6E6B1E0B3D0A8E65B
:10154A00B1E0B0D096D0A0916601B0916701EA17D8
:10155A00FB0729F4E0E0E0936601E0936701E1E02C
:10156A00E51551F4B2D0EA5DFF4FB4D0EE5DFE4FFF
:10157A00B1D0E25EFD4FB1D0E2E0E51551F4A5D05D
:10158A00E65EFC4FA7D0EA5EFB4FA4D0EE5EFA4FB0
:10159A00A4D0E3E0E51551F498D0E25FF94F9AD070
:1015AA00E65FF84F97D0EA5FF74F97D0E4E0E5158A
:1015BA0051F48BD0EE5FF64F8DD0E250F64F8AD0C1
:1015CA00E650F54F8AD0E5E0E51551F47ED0EA50B1
:1015DA00F44F80D0EE50F34F7DD0E251F24F7DD0E0
:1015EA00E6E0E51551F471D0E651F14F73D0EA51B6
:1015FA00F04F70D0EE51FF4E70D003C04ED04DD098
:10160A004FD0E1E04E2E7DCFFFCFE5B7E068E5BFD2
:10161A000895E5B7EF77E5BF0895E5B7EF78E0629B
:10162A00E5BFEFB778948895EFBF08950A921A92AA
:10163A00FA926A937A938A939A93AA93BA93EA93B9
:10164A00FA93EFB7EA930895ECB5AE2FEDB5FE2FF6
:10165A00E0E0EA2B0895E0E0EDBDECBD0895EFEF80
:10166A00E8BBE5BBE2BB0895E0916201F09163013A
:10167A000895E0916C01F0916D010895A0916A01BD
:10168A00B0916B0111970895A4E6B0E028C05A9270
:10169A00E0E0EA93A0E0DBDDF7CFE0E0EA9308952B
:1016AA00A0E0D5CDED91FD913196FE93EE9308958C
:1016BA00EFEFEA930895A0916A01B0916B01089542
:1016CA00AFEFC5CDA2E3B0E00AC0E0916601F091A8
:1016DA0067010895E491EA93F8CFA491B8CD1096E2
:1016EA0039F080ED97E00197F1F7A8951197C9F7BE
:1016FA000895F195E195F0400895FA9FF02DEB9F3A
:10170A00F00DEA9FE02DF10D08951CD0F6DF0EF4DE
:10171A00F0DF08950024112490E1AA0FBB1F001CDA
:10172A00111C0E1A1F0A18F40E0E1F1E01C0A1600A
:10173A009A9599F7FD01D001089504D0EBDF0EF4D4
:10174A00D8DF0895E894F7FF02C0D3DF6894B7FFA3
:10175A0006C0A095B095119600F8039400FA089572
:00000001FF
